{
  "contractName": "enviaDocs",
  "abi": [
    {
      "inputs": [],
      "stateMutability": "nonpayable",
      "type": "constructor"
    },
    {
      "anonymous": false,
      "inputs": [
        {
          "indexed": true,
          "internalType": "address",
          "name": "account",
          "type": "address"
        }
      ],
      "name": "GrantPermission",
      "type": "event"
    },
    {
      "anonymous": false,
      "inputs": [
        {
          "indexed": true,
          "internalType": "address",
          "name": "account",
          "type": "address"
        }
      ],
      "name": "RevokePermission",
      "type": "event"
    },
    {
      "inputs": [],
      "name": "IDdoc",
      "outputs": [
        {
          "internalType": "uint256",
          "name": "",
          "type": "uint256"
        }
      ],
      "stateMutability": "view",
      "type": "function",
      "constant": true
    },
    {
      "inputs": [
        {
          "internalType": "uint256",
          "name": "",
          "type": "uint256"
        }
      ],
      "name": "headerID",
      "outputs": [
        {
          "internalType": "uint256",
          "name": "",
          "type": "uint256"
        }
      ],
      "stateMutability": "view",
      "type": "function",
      "constant": true
    },
    {
      "inputs": [
        {
          "internalType": "address",
          "name": "",
          "type": "address"
        }
      ],
      "name": "userAccess",
      "outputs": [
        {
          "internalType": "bool",
          "name": "",
          "type": "bool"
        }
      ],
      "stateMutability": "view",
      "type": "function",
      "constant": true
    },
    {
      "inputs": [
        {
          "internalType": "address",
          "name": "_account",
          "type": "address"
        }
      ],
      "name": "userPermission",
      "outputs": [],
      "stateMutability": "nonpayable",
      "type": "function"
    },
    {
      "inputs": [
        {
          "internalType": "address",
          "name": "_account",
          "type": "address"
        }
      ],
      "name": "grantPermission",
      "outputs": [],
      "stateMutability": "nonpayable",
      "type": "function"
    },
    {
      "inputs": [
        {
          "internalType": "address",
          "name": "_account",
          "type": "address"
        }
      ],
      "name": "revokePermission",
      "outputs": [],
      "stateMutability": "nonpayable",
      "type": "function"
    },
    {
      "inputs": [
        {
          "internalType": "address",
          "name": "_hSender",
          "type": "address"
        },
        {
          "internalType": "address",
          "name": "_hIdDest",
          "type": "address"
        },
        {
          "internalType": "string",
          "name": "_hDestName",
          "type": "string"
        }
      ],
      "name": "setSendHForm",
      "outputs": [],
      "stateMutability": "nonpayable",
      "type": "function"
    },
    {
      "inputs": [
        {
          "internalType": "string",
          "name": "_mItems",
          "type": "string"
        },
        {
          "internalType": "string",
          "name": "_mDate",
          "type": "string"
        }
      ],
      "name": "setSendMsgDetail",
      "outputs": [],
      "stateMutability": "nonpayable",
      "type": "function"
    },
    {
      "inputs": [
        {
          "internalType": "address",
          "name": "_userID",
          "type": "address"
        }
      ],
      "name": "returnDocuments",
      "outputs": [
        {
          "internalType": "uint256[]",
          "name": "",
          "type": "uint256[]"
        }
      ],
      "stateMutability": "nonpayable",
      "type": "function"
    },
    {
      "inputs": [
        {
          "internalType": "uint256",
          "name": "_docID",
          "type": "uint256"
        }
      ],
      "name": "getDocDetail",
      "outputs": [
        {
          "internalType": "uint256",
          "name": "",
          "type": "uint256"
        },
        {
          "internalType": "address",
          "name": "",
          "type": "address"
        },
        {
          "internalType": "string",
          "name": "",
          "type": "string"
        },
        {
          "internalType": "string",
          "name": "",
          "type": "string"
        },
        {
          "internalType": "string",
          "name": "",
          "type": "string"
        }
      ],
      "stateMutability": "view",
      "type": "function",
      "constant": true
    },
    {
      "inputs": [
        {
          "internalType": "uint256",
          "name": "_docID",
          "type": "uint256"
        }
      ],
      "name": "getMsgDetail",
      "outputs": [
        {
          "internalType": "string",
          "name": "",
          "type": "string"
        }
      ],
      "stateMutability": "view",
      "type": "function",
      "constant": true
    }
  ],
  "bytecode": "0x60806040526000805460ff63ffffffff60a81b011916600117815560025534801561002957600080fd5b50600080546101003302610100600160a81b03199091161790556110b3806100526000396000f3fe608060405234801561001057600080fd5b50600436106100a95760003560e01c80638951023811610071578063895102381461013357806389eaa6101461013c578063970cca011461016f57806398d6000d14610182578063a3bf5b9a146101a2578063aa19927e146101b557600080fd5b80631a3f8093146100ae5780632d8e3278146100c3578063440df811146100d657806376a8725d146100fc57806382ad60e814610120575b600080fd5b6100c16100bc366004610d09565b6101d5565b005b6100c16100d1366004610d67565b6101e6565b6100e96100e4366004610d82565b61020e565b6040519081526020015b60405180910390f35b61010f61010a366004610d82565b61022f565b6040516100f3959493929190610de1565b6100c161012e366004610e3d565b61055a565b6100e960025481565b61015f61014a366004610d67565b60016020526000908152604090205460ff1681565b60405190151581526020016100f3565b6100c161017d366004610d67565b610569565b610195610190366004610d82565b6105d4565b6040516100f39190610ea1565b6100c16101b0366004610d67565b6106d8565b6101c86101c3366004610d67565b61073d565b6040516100f39190610eb4565b6101e0838383610982565b50505050565b60005461010090046001600160a01b0316331461020257600080fd5b61020b81610569565b50565b6004818154811061021e57600080fd5b600091825260209091200154905081565b6000806060806060600060606000606080606060005b600354811015610544578c6003828154811061026357610263610ef8565b90600052602060002090600402016000015403610532576003818154811061028d5761028d610ef8565b906000526020600020906004020160020160009054906101000a90046001600160a01b03169450600381815481106102c7576102c7610ef8565b906000526020600020906004020160030180546102e390610f0e565b80601f016020809104026020016040519081016040528092919081815260200182805461030f90610f0e565b801561035c5780601f106103315761010080835404028352916020019161035c565b820191906000526020600020905b81548152906001019060200180831161033f57829003601f168201915b5050505050935060005b600554811015610530576003818154811061038357610383610ef8565b906000526020600020906004020160000154600582815481106103a8576103a8610ef8565b9060005260206000209060030201600001540361051e57600581815481106103d2576103d2610ef8565b906000526020600020906003020160010180546103ee90610f0e565b80601f016020809104026020016040519081016040528092919081815260200182805461041a90610f0e565b80156104675780601f1061043c57610100808354040283529160200191610467565b820191906000526020600020905b81548152906001019060200180831161044a57829003601f168201915b505050505093506005818154811061048157610481610ef8565b9060005260206000209060030201600201805461049d90610f0e565b80601f01602080910402602001604051908101604052809291908181526020018280546104c990610f0e565b80156105165780601f106104eb57610100808354040283529160200191610516565b820191906000526020600020905b8154815290600101906020018083116104f957829003601f168201915b505050505092505b8061052881610f48565b915050610366565b505b8061053c81610f48565b915050610245565b506002549c939b50919950975095509350505050565b6105648282610b55565b505050565b60005461010090046001600160a01b0316331461058557600080fd5b6001600160a01b0381166000818152600160208190526040808320805460ff1916909217909155517f1b9ce64bcfe5f103e67c60c29db7f1b09b050ff5f2bb3666cc46014fc225492f9190a250565b60608060005b6005548110156106d15783600582815481106105f8576105f8610ef8565b906000526020600020906003020160000154036106bf576005818154811061062257610622610ef8565b9060005260206000209060030201600101805461063e90610f0e565b80601f016020809104026020016040519081016040528092919081815260200182805461066a90610f0e565b80156106b75780601f1061068c576101008083540402835291602001916106b7565b820191906000526020600020905b81548152906001019060200180831161069a57829003601f168201915b505050505091505b806106c981610f48565b9150506105da565b5092915050565b60005461010090046001600160a01b031633146106f457600080fd5b6001600160a01b038116600081815260016020526040808220805460ff19169055517f02516abde376fc384739cd7137c5f64db4781260cec81c93c5effcbcb008ffdc9190a250565b60606000806000606060005b60035481101561092557866001600160a01b03166003828154811061077057610770610ef8565b60009182526020909120600160049092020101546001600160a01b03160361091357600381815481106107a5576107a5610ef8565b9060005260206000209060040201600001549450600381815481106107cc576107cc610ef8565b906000526020600020906004020160010160009054906101000a90046001600160a01b031693506003818154811061080657610806610ef8565b906000526020600020906004020160020160009054906101000a90046001600160a01b031692506003818154811061084057610840610ef8565b9060005260206000209060040201600301805461085c90610f0e565b80601f016020809104026020016040519081016040528092919081815260200182805461088890610f0e565b80156108d55780601f106108aa576101008083540402835291602001916108d5565b820191906000526020600020905b8154815290600101906020018083116108b857829003601f168201915b5050600680546001810182556000919091527ff652222313e28459528d920b65115c16c04f3efc82aaedc97be59f3f377c0d3f018990555091935050505b8061091d81610f48565b915050610749565b50600680548060200260200160405190810160405280929190818152602001828054801561097257602002820191906000526020600020905b81548152602001906001019080831161095e575b5050505050945050505050919050565b60028054606091600061099483610f48565b90915550503360009081526001602081905260409091205460ff16151590036100a9576040805160808101825260025481526001600160a01b03808716602083019081528682169383019384526060830186815260038054600181018255600091909152845160049091027fc2575a0e9e593c00f959f8c92f12db2869c3395a3b0502d05e2516446f71f85b810191825592517fc2575a0e9e593c00f959f8c92f12db2869c3395a3b0502d05e2516446f71f85c840180549186166001600160a01b031992831617905595517fc2575a0e9e593c00f959f8c92f12db2869c3395a3b0502d05e2516446f71f85d840180549190951696169590951790925590519192917fc2575a0e9e593c00f959f8c92f12db2869c3395a3b0502d05e2516446f71f85e90910190610ac69082610fbd565b50506002546004805460018101825560008290527f8a35acfbc15ff81a39ae7d344fd709f28e8600b4aa8c65c6b64bfe7fe36bd19b01919091558054604080516020838102820181019092528281529350830182828015610b4657602002820191906000526020600020905b815481526020019060010190808311610b32575b505050505090505b9392505050565b3360009081526001602081905260409091205460609160ff909116151590036100a9576040805160608101825260025481526020810185815291810184905260058054600181018255600091909152815160039091027f036b6384b5eca791c62761152d0c79bb0604c104a5fb6f4eb0703f3154bb3db081019182559251919290917f036b6384b5eca791c62761152d0c79bb0604c104a5fb6f4eb0703f3154bb3db190910190610c069082610fbd565b5060408201516002820190610c1b9082610fbd565b505060408051808201909152600e81526d4e6f74617320656e76696164617360901b6020820152949350505050565b80356001600160a01b0381168114610c6157600080fd5b919050565b634e487b7160e01b600052604160045260246000fd5b600082601f830112610c8d57600080fd5b813567ffffffffffffffff80821115610ca857610ca8610c66565b604051601f8301601f19908116603f01168101908282118183101715610cd057610cd0610c66565b81604052838152866020858801011115610ce957600080fd5b836020870160208301376000602085830101528094505050505092915050565b600080600060608486031215610d1e57600080fd5b610d2784610c4a565b9250610d3560208501610c4a565b9150604084013567ffffffffffffffff811115610d5157600080fd5b610d5d86828701610c7c565b9150509250925092565b600060208284031215610d7957600080fd5b610b4e82610c4a565b600060208284031215610d9457600080fd5b5035919050565b6000815180845260005b81811015610dc157602081850181015186830182015201610da5565b506000602082860101526020601f19601f83011685010191505092915050565b8581526001600160a01b038516602082015260a060408201819052600090610e0b90830186610d9b565b8281036060840152610e1d8186610d9b565b90508281036080840152610e318185610d9b565b98975050505050505050565b60008060408385031215610e5057600080fd5b823567ffffffffffffffff80821115610e6857600080fd5b610e7486838701610c7c565b93506020850135915080821115610e8a57600080fd5b50610e9785828601610c7c565b9150509250929050565b602081526000610b4e6020830184610d9b565b6020808252825182820181905260009190848201906040850190845b81811015610eec57835183529284019291840191600101610ed0565b50909695505050505050565b634e487b7160e01b600052603260045260246000fd5b600181811c90821680610f2257607f821691505b602082108103610f4257634e487b7160e01b600052602260045260246000fd5b50919050565b600060018201610f6857634e487b7160e01b600052601160045260246000fd5b5060010190565b601f82111561056457600081815260208120601f850160051c81016020861015610f965750805b601f850160051c820191505b81811015610fb557828155600101610fa2565b505050505050565b815167ffffffffffffffff811115610fd757610fd7610c66565b610feb81610fe58454610f0e565b84610f6f565b602080601f83116001811461102057600084156110085750858301515b600019600386901b1c1916600185901b178555610fb5565b600085815260208120601f198616915b8281101561104f57888601518255948401946001909101908401611030565b508582101561106d5787850151600019600388901b60f8161c191681555b5050505050600190811b0190555056fea2646970667358221220a215abeb0a34fedc510bf1ec9d3c21a910959d9414034f60f5b3c9a27cb4c4b564736f6c63430008110033",
  "immutableReferences": {},
  "source": "// SPDX-License-Identifier: GPL-3.0\npragma solidity 0.8.17;\n\n//import './evdToken.sol';\n\ncontract enviaDocs {\n\n    bool private status = true;\n\n    address admin;\n\n    constructor(){\n        admin = msg.sender;\n    }\n    \n    modifier onlyOwner(){\n        require (admin == msg.sender);\n        _;\n    }\n\n//variavel inicial para o id dos membros  \n    uint32 userID=0;\n   \n\n \n//mapeamento da estrutura dos utilizadoes\n    event GrantPermission(address indexed account);\n    event RevokePermission(address indexed account);\n    mapping(address =>bool) public userAccess;\n\n   \n    \n\n\n\n//################################Gesto de Users###############################################\n//funcao interna para atribuir permisso ao utilizador para utilizar o contrato\n    function userPermission(address _account) public onlyOwner {\n         userAccess[_account] = true;\n         emit GrantPermission( _account);\n     }\n//Funcao receber a permisso e gravar na funao interna\n    function grantPermission(address _account) external onlyOwner {\n        userPermission(_account);\n    }\n//Funao para remover o acesso do utilizador\n      function revokePermission(address _account) public onlyOwner {\n        userAccess[_account] = false;\n        emit RevokePermission(_account);\n    }\n\n \n//################################Envio do Form#####################################################\n    uint public IDdoc = 0;\n\n//Estrutura do formulario - Cabealho\n    struct formHeader {\n        uint hID;\n        address hSender;\n        address hIdDest;\n        string hDestName;       \n    }\n\n    formHeader[] FormHeader;\n\n    uint[] public headerID;\n\n//funo para envio do cabealho do form\n    function sendHForm (\n        address _hSender,\n        address _hIdDest,        \n        string memory _hDestName \n        ) internal returns (uint[] memory) {            \n               \n        IDdoc++;\n\n        if(userAccess[msg.sender] == true){\n            FormHeader.push(formHeader(IDdoc,_hSender,_hIdDest, _hDestName));\n            headerID.push(IDdoc);\n           return (headerID);\n        } else {\n           revert();\n           }\n    }\n    \n\n    function setSendHForm( address _hSender,\n        address _hIdDest,        \n        string memory _hDestName) external {\n            sendHForm(_hSender, _hIdDest,  _hDestName);\n        }\n\n\n\n   //estrutura para os detalhes da mensagem\n    struct mDetail {\n        uint mID;\n        string mItems;\n        string mDate;\n\n    }\n\n    mDetail[] MDetail;\n\n//Funcao para o envio dos detalhes da mensagem\n    function sendMsgDetail(string memory _mItems, string memory _mDate ) internal returns (string memory) {\n        if(userAccess[msg.sender] == true){\n            MDetail.push(mDetail(IDdoc,_mItems, _mDate));\n           return \"Notas enviadas\";\n        } else {\n           revert();\n           }\n    } \n\n    function setSendMsgDetail (string memory _mItems, string memory _mDate ) external {\n        sendMsgDetail(_mItems, _mDate);\n    }\n\nuint[] DocResult;\n\nstring myID;\n//Funcao para retornar documentos por utilizador\nfunction returnDocuments(address _userID) public returns (uint[] memory){\n        uint myID;\n        address _hSender;\n        address _hIdDest; \n        string memory _hDestName;        \n\n            for(uint i= 0; i < FormHeader.length; i++){\n                if (FormHeader[i].hSender == _userID) {                    \n                        myID = FormHeader[i].hID;\n                    _hSender = FormHeader[i].hSender;\n                    _hIdDest = FormHeader[i].hIdDest; \n                    _hDestName = FormHeader[i].hDestName; \n                    DocResult.push(myID);                                     \n                }\n            }       \n              \n           return (DocResult);\n    }\n\n//################################Fim do Envio do Form#####################################################\n\n\n//################################Funcoes de consulta#####################################################\n\n//estrutura para envio da parte superior do formulario\n    function getDocDetail(uint _docID) public view returns (uint, address, string memory, string memory, string memory){\n        uint myID;\n        string memory _uName;\n        address _hIdDest; \n        string memory _hDestName;\n        //string memory _hExpDate;\n        string memory _mItems;\n        string memory _mDate;\n\n        //address _mAddress = msg.sender;\n        //bool resultCreate = false; \n\n            for(uint i= 0; i < FormHeader.length; i++){\n                if (FormHeader[i].hID == _docID) {\n                    //resultCreate = true;\n                    _hIdDest = FormHeader[i].hIdDest;\n                    _hDestName = FormHeader[i].hDestName;\n                    //_hExpDate = FormHeader[i].hExpDate;\n                    for(uint i= 0; i < MDetail.length; i++){\n                        if (MDetail[i].mID == FormHeader[i].hID) {\n                            _mItems = MDetail[i].mItems;\n                            _mDate = MDetail[i].mDate;               \n                        }\n                    }                     \n                }\n            }        \n            \n           return (IDdoc,_hIdDest, _hDestName,_mItems, _mDate);\n       \n    }\n\n  \n\n    function getMsgDetail(uint _docID) public view returns (string memory){\n        string memory _mItems;\n        \n        \n            for(uint i= 0; i < MDetail.length; i++){\n                if (MDetail[i].mID == _docID) {\n                    _mItems = MDetail[i].mItems;\n                                 \n                }\n                                       \n                \n            }        \n            \n           return (_mItems);\n       \n    }\n\n}",
  "sourcePath": "D:\\Projeto_Tese\\enviadocs_v4\\frontend\\contracts\\enviaDocs.sol",
  "compiler": {
    "name": "solc",
    "version": "0.8.17+commit.8df45f5f.Emscripten.clang"
  },
  "schemaVersion": "3.4.9",
  "updatedAt": "2022-09-19T12:27:47.630Z",
  "networkType": "ethereum",
  "devdoc": {
    "kind": "dev",
    "methods": {},
    "version": 1
  },
  "userdoc": {
    "kind": "user",
    "methods": {},
    "version": 1
  }
}